:020000040000FA
:10000000020529020823FFFFFFFFFF02082BFFFF65
:10001000FFFFFF020833FFFFFFFFFF02083BFFFF68
:10002000FFFFFF020843FFFFFFFFFF02084BFFFF38
:10003000FFFFFF020853FFFFFFFFFF02085BFFFF08
:10004000FFFFFF020863FFFFFFFFFF02086BFFFFD8
:10005000FFFFFF020873FFFFFFFFFF02087BFFFFA8
:10006000FFFFFF020883FFFFFFFFFF02088BFFFF78
:10007000FFFFFF020893FFFFFFFFFF02089BFFFF48
:10008000FFFFFF0208A3FFFFFFFFFF0208ABB10362
:10009000E303E303E303E303E703EB3C904D534443
:1000A0004F53352E3000020401000210000000F80A
:1000B0000100000000000400000004000000000037
:1000C00029000000004E4F204E414D4520202020A9
:1000D000464154313220202000035F005F00300091
:1000E00058000000000000000000000000000000B8
:1000F0000000000000000000000000000000000000
:10010000000074F71202C543C707E59D5418641038
:10011000704275080475090078081204F17C9D7D11
:10012000147A9C7B06790112066274021204A7906D
:10013000149DE0F8A3E0F9A3E0687003A3E0697000
:100140001390149DE0F47003A3E0F46007E84960A5
:1001500003120650781075B60FE5B4A2E750FAE521
:10016000BBC3944A40F018E870EC75A80075B8005D
:10017000759A0075C6809062707408F079017F02EC
:10018000020371E4CFC0E0E4CEC0E0E4CDC0E0E41F
:10019000CCC0E075F020C3E633F608E633F608E697
:1001A00033F608E633F6181818EC33FCED33FDEEA1
:1001B00033FEEF33FFC3EC9709ED9709EE9709EF94
:1001C00097191919400FFFEC97FC09ED97FD09EEFF
:1001D00097FE191906D5F0BEECF709EDF709EEF711
:1001E00009EFF7191919D0E0FCD0E0FDD0E0FED0FE
:1001F000E0FF222518C582C0E0E51934FFC583C0A1
:10020000E0E518C3958224F810AF0885831985822C
:10021000188008858319858218D2AFCEF0A3E52017
:10022000F0A37808E608F0A3DEFAEFF0A3E5812456
:10023000FAF8E608F0A3E608F0A3E608F0A3080839
:10024000E608F0A3E608F0A315811581D0E0FED002
:10025000E0F8158115811581E8C0E0EEC0E02212BA
:100260000102B900030202AFE479217807B8000265
:100270008004F709D8FCE4900300782A7901800211
:10028000F0A3D8FCD9FA900329AA82AB8390008E00
:10029000787579018015E493A3AC82AD838A828B53
:1002A00083F0A3AA82AB838C828D83D8E9D9E775CA
:1002B00082027583D674071204547582A77583056C
:1002C00074001204542518C582C0E0E51934FFC536
:1002D00083C0E0E518C3958224F910AF088583191F
:1002E0008582188008858319858218D2AFCEF0A345
:1002F000E520F0A37808E608F0A3DEFAEFF0A3E526
:100300008124FBF8E608F0A3E608F0A30808E60855
:10031000F0A3E608F0A315811581D0E0FED0E0F847
:1003200015811581E8C0E0EEC0E0228519838518AB
:1003300082E0A3FEE0A3F5207808E0A3F608DFFA48
:10034000E0A3FFE0A3C0E0E0A3C0E0E0A3C0E0E0E2
:10035000A3C0E0E0A3C0E010AF0885821885831930
:100360008008858218858319D2AFD083D082020499
:100370005A851983851882E0A3FEE0A3F52078084A
:10038000E0A3F608DFFAE0A3FFE0A3C0E0E0A3C02B
:10039000E0E0A3C0E0E0A3C0E010AF0885821885CC
:1003A00083198008858218858319D2AFD083D082C3
:1003B0002212010002000000205104A816090001C9
:1003C00002030109022000010100800F090400005E
:1003D00002080650000705840240000007050402D9
:1003E000400000CC03102074038000CCC0E0EDC0BE
:1003F000E0E518C39CCCAD1950011D10AF068C1858
:100400008D1980068C188D19D2AF120414D0E0FD1E
:10041000D0E0FC22CAC0E0E0A3C582CCC582C5837F
:10042000CDC583F0A3C582CCC582C583CDC583DA93
:10043000E6D0E0CA227009080808226016181818C9
:10044000C6C333C608C633C608C633C608C633C6D5
:10045000D5E0EA22C09FF59FE473D09F22D083D0DD
:1004600082C09FE493C0E0740193C0E0740293F5EE
:100470009F222518F58210AF08F518400215198043
:1004800008F51840021519D2AF85198322BB010265
:10049000E722C082C08389828A83BB0003E0800296
:1004A000E493D083D08222C0D0251810AF08F5186D
:1004B000500205198008F51850020519D2AFD0D0A6
:1004C00022BB000EC082C0838A838982F0D083D091
:1004D0008222BB0101F722251810AF08F51840024F
:1004E00015198008F51840021519D2AF227403803F
:1004F0000474028000C0E0F404120472D0E012051B
:100500007822C3E096F008A3E096F008A3E096F006
:1005100008A3E096F022700422600D18C6C333C60B
:1005200008C633C6D5E0F4182275D00075813F7532
:100530001800751903759F0002025FC3E09608A3B7
:10054000E09608A3E09608A3E09622600C08C6C3D4
:1005500013C618C613C6D5E0F422E0F608A3E0F6E9
:1005600008A3E0F608A3E0F622E6F008A3E6F00808
:10057000A3E6F008A3E6F022CAC0E0E6F0A308DA9A
:10058000FAD0E0FA22E0FAA3E0FBA3E0FCA3E0FD4E
:1005900022EAF0A3EBF0A3ECF0A3EDF0222518F58E
:1005A00082E43519F5832200000080FBE473120415
:1005B0005DAAE30712045D48E40712045DDCE4076A
:1005C00012045DF6E40712045DECE50712045D44D5
:1005D000E80712045DE7E90712045DAEEA071204BA
:1005E0005DAAEC0712045D91ED0712045DFEED07B4
:1005F00012045D32EE0712045DA9EE0712045DBC21
:10060000F00712045DEBF10712045DEDF10712042F
:100610005D2AF20712045D2CF20712045D2EF20728
:1006200012045D3FF20712045D41F20712045D44BB
:10063000F20712045D24D10712045D77D10712047A
:100640005D7CD10712045D43D20712045D5AD307C3
:1006500012045DB3D40712045DC0D40712045D0F09
:10066000D50712045D19D60712045D9CD607120443
:100670005D0BD70712045D86D70712045DA5D70767
:1006800012045DEAD70712045D20D80712045DC486
:10069000D80712045DFCD80712045D1BD9071204A9
:1006A0005D4BDB0712045D80DB0712045DAADB07EC
:1006B00012045DE5DB0712045DCDDC0712045DB7B3
:1006C000DD0712045DC9DD0712045DDBDD071204DE
:1006D0005D21DE0712045DB6DF0712045D16E10737
:1006E00012045D4EE10712045DF8E10712045D5546
:1006F000E20712045DCBE20712045D09E30712046E
:100700005D10070012045D66070012045DAC07006F
:1007100074F71201F3740912059DE0F8A3E0801547
:10072000A3AA82AB838C828D83A3AC82AD83E824A1
:10073000FF18E934FFF9E84960238A828B83E0FEE1
:100740008C828D83E06E8A828B8360D4E0F88C8209
:100750008D83E0FAE8C39AFA95E0FB80047A007B87
:10076000007F0102032B74F61201F3740A12059D37
:10077000E0FEA3E0FFEAF8EBF980188C828D83E0BD
:1007800088828983F0A3A882A9838C828D83A3ACFD
:1007900082AD838E088F09E50824FF1EE50934FF2A
:1007A000FFE508450970D47F0202032B74F712019C
:1007B000F3740912059DE0F8A3E0F98A828B838027
:1007C00003ECF0A3E8FEE9FFEE24FF18EF34FFF995
:1007D000EE4F70ED7F0102032BFFFFFFFFFFFFFFD6
:1007E000FFFFFFFFFFFFFFFFFFFFFFFFFFFFFFFF19
:1007F000FFFFFFFFFFFFFFFFFFFFFFFFFFFFFFFF09
:020000040003F7
:10D00000240342004C00450020004D0049004E0022
:10D010004900200055005300420020004D005300FD
:10D0200044002000240352006500640020004200F8
:10D0300065006100720020004C0061006200200069
:10D040002000200020002000008002021F000000BD
:10D0500047656E657269632055534220466C617363
:10D0600068204469736B2020302E3030444546419F
:10D07000554C5420434647200015095A473F473F27
:10D0800000008656473F020064000000FFFFFFFFDC
:10D09000FFFFFFFFFFFFFFFFFFFFFFFFFFFFFFFFA0
:10D0A000FFFFFFFFFFFFFFFFFFFFFFFF000000008C
:10D0B0000000000000000000000000000000000070
:10D0C000000000000000000000000000303132339A
:10D0D000343536373839414243444546000000086C
:10D0E0000000000002000200FFFFFFFFFFFFFFFF44
:10D0F000000000000000020003000000000000002B
:10D1000043464700FFFFFFFF00000000040309043F
:10D11000FFFFFFFF55534253555342437D0000002C
:10D120000000017774F61201F375080475090078A0
:10D13000081204F17C9D7D147A9C7B06790112060D
:10D140006274021204A790149D12D761A3E8F0A3A1
:10D15000E9F090149D74FFF0A3F0750801780812AF
:10D1600004F17C9D7D147AA77B0312066874021279
:10D1700004A7790102D706790102045A74F6120154
:10D18000F374FC1204D7EAFEEBFF901500E0607F19
:10D1900075082075090078081204F1EE2408FCEFE8
:10D1A0003400FD7AA57B141206FE74021204A78BCC
:10D1B00009EA450960599014FDE0F87901701112EF
:10D1C0000656C2AF75C9AB75C95B80FEE9C333F9BA
:10D1D000E95860F8E069F090D104C0828518828532
:10D1E0001983AC82AD837583D1D082740412041488
:10D1F00012D49A1204F1740212059DAC82AD837AA6
:10D20000BF7B0312066874021204A77900802C9079
:10D210001500E4F0750858F50978081204F1EE24B9
:10D2200004FCEF3400FD7AA17B141207047402128F
:10D2300004A790149FE4F0A3F0790174041204A7EA
:10D2400002D70674F41201F374FC1204D78007901D
:10D25000149FE4F0A3F01205B4E9640190149D70EA
:10D260000302D33212D4AC7003A3E06970E89014C7
:10D270009DE0F47003A3E0F460DCE84960D890140A
:10D28000A312E14860D09014F5E0A2E0403DA2E195
:10D290005004D2F08002C2F0A2F0E433FA75080123
:10D2A00075090090159DE07808120516901595E017
:10D2B000F8A3E0F5838882E055086004D2F080028C
:10D2C000C2F0EAA2E020F001B34084E5958518821F
:10D2D000851983F0659570F3E596C0E07401120539
:10D2E0009DD0E0F0E597C0E0740212059DD0E0F01B
:10D2F000740312059DE4F0901589780812055A858B
:10D3000018828519837808120502740312059DE4BA
:10D31000F0901591C08285188285198378081205CE
:10D320005A758315D082780812053B400302D25605
:10D33000801A12D4AC7003A3E069701690149DE0BB
:10D34000F47003A3E0F4600AE84960061205BA121B
:10D35000065074041204A702D81B74F01201F3746F
:10D36000FC1204D775086475090078081204F17C72
:10D370009D7D147A9C7B0679011206627402120468
:10D38000A775082078081204F17C8C7DD07AA57BE3
:10D39000141206FE74021204A78B09EA45097005EF
:10D3A000901500E4F090149D12D4AC7003A3E069D2
:10D3B000600302D47790149DE0F47003A3E0F4704E
:10D3C0000302D477E849700302D4779014F9E0F8A7
:10D3D000604E79018004E9C333F9E95860F8E069E7
:10D3E000F0700990149FE4F0A302D47690D110C09D
:10D3F00082851882851983AC82AD837583D1D082F2
:10D40000740412041412D49A1204F1740212059DC9
:10D41000AC82AD837ABE7B0312066874021204A745
:10D420009014F5E0A2E0400612065CE97049901401
:10D43000A312D6F9E508450970051206508038E4B4
:10D44000F50AF50B740C780812043590D11C780C91
:10D4500012055A7808790C120183901591780812F8
:10D460000569E595901589F0659570F6E596A3F048
:10D47000E597A3F0A3E4F0781075B60FE5B4A2E742
:10D4800050FAE5BBC3944E40F018E870EC1205AEBC
:10D4900074041204A77F0802032B85188285198360
:10D4A000E069F075080175090078082212D765A3B4
:10D4B000E06822020820C2AF75C9AB75C95B80FE67
:10D4C000C082C0837C02E9702974075CF87401B8DB
:10D4D00000028004C333D8FCC0E0EC131313541FC4
:10D4E000FA74C52AF582741412DCC8D0E0F8E0584A
:10D4F000600EECC333906272F0906270E0D2E0F0A4
:10D500000CECC3947840BF906272740202D7967498
:10D51000F61201F39014F6E0F8131313541FF97484
:10D520000758FCE970047AF3800B74016970047A7F
:10D53000F480027AF57B70ECF87401B80002800484
:10D54000C333D8FCFDF4FE8A828B83E05EF0E97081
:10D55000047AFD800B74016970047AFE80027AFF00
:10D560008A82E05EF0E970047A8F800B7401697042
:10D57000047AF680027AF79014F5E0A2E25025755D
:10D5800008017509007405297808120516A808E035
:10D59000A2E3E85005F452F7800242F78A828B83B7
:10D5A000E05E80068A828B83E04DF0EC90159DF062
:10D5B000E970079015957480800E74016990159537
:10D5C00070047490800274A0F0A37470F09014F54D
:10D5D000E0C313F8901595E0FAA3E0F5838A82E0A2
:10D5E0005D6004D2F08002C2F0E8A2E020F001B356
:10D5F000500B90149FE4F0A3F079018002790002AF
:10D60000D7067415F5D575D48112064A120644C2A0
:10D61000AF75C9AB75C95B80FE74F41201F389085C
:10D62000740C12059DE0FEA3E0FF740F5508F50A87
:10D63000750B00740B780A120516EA2400F8EB3417
:10D6400080F9E82400E9350BF9E5C7F509A2AFE454
:10D6500033F50AC2AFE508C4540FFAE5C754F84AD7
:10D66000F5C7801C88828983E08C828D83F0888254
:10D670008983A3A882A9838C828D83A3AC82AD8386
:10D68000EEFAEFFBEA24FF1EEB34FFFFEA4B70D407
:10D690008509C7E50AA2E092AF02D81B74F6120111
:10D6A000F3740A12059D12D6F9ED901581F0ECA3E2
:10D6B000F0A37462F0A37473F0A3E0541FF0E508C4
:10D6C000333354FCA3F07406780812054BE5089038
:10D6D0001585F09015877412F0A37442F075D1FE91
:10D6E00075D601EA906271F0EBA3F0906270E0D21F
:10D6F000E1F0E0A2E740FB800DE0F508A3E0F509CA
:10D7000022758B00C2E87F0202032BC082C083E92E
:10D71000FCEAFD7A007B00800818900305E012D730
:10D720006B90030412D76190032BE0687003A3E0B1
:10D73000696029900304E0240108A3E03400F9881B
:10D74000828983E4936C700C90030412DB451812F9
:10D75000D76B8008E4936D70C0ED60BD804090038E
:10D760001D12D76522E0F8A3E0F922F5838882E450
:10D7700093F8900304E028F8A3E03400F990030440
:10D78000E8F0A3E9F022C082C08312D7DB7A0079E7
:10D790000112066E8008F0906270E0D2E0F0D08353
:10D7A000D08202045A74F61201F3E9FEEAFF12D79E
:10D7B000DB7A00790212066EEA4B601CEE60108A7A
:10D7C000828B83A3A3A3A3A3E4936E70E48009EFE9
:10D7D000F874FF281F0470D902D70690032912D7C6
:10D7E00065900304E8F0A3E9F02274F41201F3EA6F
:10D7F000FF8B087A0012067A7A02790412066EEA22
:10D800004B60188A828B83A3A3E4936F70EA8A82A9
:10D810008B83A3A3A3E493650870DD7F0402032B2D
:10D8200074F61201F374F81204D7E97A007B0060F1
:10D830000C14600F14601214601502D8BF7A0C7BB0
:10D84000D1807C7A247BD080767A007BD0807090E7
:10D850000373E07066851882851983AC82AD837589
:10D8600083D07582E874081204147C28FD8D088525
:10D870001882851983E5822508F582E58312DCC3C9
:10D88000FF8C0874732508F874033400F9EF12DC78
:10D89000B988828983F0EFC412DCB9C0E0E824FEC5
:10D8A000F582E934FFF583D0E0F00D74FC2CFCED3B
:10D8B000C3940840B8900373742AF07A737B03749E
:10D8C0000802D23DC082C0837A00790112067A8AAA
:10D8D000828B83A3A3A3A3A3A3A3E493A2E69003B1
:10D8E00019500474018001E4F0900318E4F0906290
:10D8F0000F7403F0E0A2E750FB02D79EC082C08302
:10D900009003067402F0A3E4F090030DF079031283
:10D91000069E75210075220002D79E74F51201F350
:10D9200090620EE0FEE4F0906211E0F50AA2E4508D
:10D930001D7480F090030D7407F0E5214522600905
:10D940008521828522831205AC90030DE4F0E50A5F
:10D95000A2E2500B906211E4F090030DF0807390FE
:10D96000030DE0F87402687052906216E0FF9003B5
:10D970001A1203E7EFF97A207B621206A4740312ED
:10D9800004A78F0890031D12DB1C12DB2712E1484D
:10D990006004744080027448906211F0E849701489
:10D9A000E521452260098521828522831205AC90FC
:10D9B000030DE4F0EE90620E02DBA47406687009B9
:10D9C0008521828522831205AC90030DE06003025D
:10D9D000DAB8E50AA2E050DC75081F750903750A7C
:10D9E0000078081204ED79087A207B621206A4748C
:10D9F000031204A775210075220090031FE054E074
:10DA0000601C24E0700302DA9224E0606F24C0609E
:10DA10004524E0700302DA9D24E0606B8030A3E0CF
:10DA200014601C24FE601324FE600A24FC6015248C
:10DA3000FE601680191206C8806C1206C28067123A
:10DA400006BC80621206E0805D1206EC80589003EE
:10DA50000D7404F08058A3E0600E24FA600F24FED9
:10DA6000601024FE601180E61206B080391206CEE6
:10DA700080341206DA802F1206E6802A75210E7590
:10DA8000220612060E801F75211475220612061436
:10DA9000801475210275220612060280097521087C
:10DAA00075220612060890030DE064047004746089
:10DAB00080027440906211F090030DE0F8740168E8
:10DAC0007046750A0212D75EC3E89420E9940050AC
:10DAD00007E8FF750A0A80027F2090031A1203E705
:10DAE000EFF97A207B621206AA74031204A78F084A
:10DAF00012DB2712DB1CE50A906211F0EFC39420C1
:10DB0000400302D9B402D9A0740568600302D9B4F5
:10DB10008521828522831205AC02D9B4C3E0950821
:10DB2000F0A3E09400F02290031AE0F9A312DB4581
:10DB3000E92508F9EA3400FA90031AE9F0A3EAF0BB
:10DB4000A3EBF0A322E0FAA3E0FB2274F61201F3A8
:10DB500078008808740E2508F582740312DB75407E
:10DB6000F17800880874132508F582740312DB75B8
:10DB700040F102D70612DCC8E9F008E8C394052298
:10DB800074F51201F3EAFCEBFDE9F8740B12059D44
:10DB900012DBD9600D8C828D83E01204C112DBCEC2
:10DBA00070F38001F07F0302032B74F51201F3EA96
:10DBB000FCEBFDE9F8740B12059D12DBD9600D1228
:10DBC000048D8C828D83F012DBCE70F380D7E92434
:10DBD0000109EA3400FA18E82212D6F9A3E0A908EC
:10DBE000AA09FBE82274F61201F312E1457011A3B1
:10DBF000E0F8A3E0700AA3E064027002A3E060080A
:10DC000090030D740402DCB590031FE024806008CB
:10DC100014602A14603780E8E870E5900319E0602A
:10DC200004780180027800900327E8F0A3E4F090E4
:10DC30000318E06065900327E044028059900306D2
:10DC4000E0640470BB900327E4F0A3804CE8547FA9
:10DC5000F508900306E0640470A6E508C394065036
:10DC60009F74062508F582740312DCC8E8548060AE
:10DC700010A3A3A3A3A3A3A3E0640370137801805C
:10DC800011E582240CF582E58312DCC3640360EDA8
:10DC90007800900327E8F0A3E4F090030DE064041B
:10DCA000601490031A7427F0A37403F0A3E4F0A3A4
:10DCB000740212E24CF002D706540FFA74CC2AF523
:10DCC0008274D012DCC8E0223400F5832274F6128C
:10DCD00001F3E9FE90032512E1487010900306E07D
:10DCE0006404601090032312E148600890030D74EF
:10DCF0000402DDB190031FE0541F600814600D148E
:10DD0000602480E8900321E064016005790002DD71
:10DD1000B4EE900318F060047905800279067A0069
:10DD200012062602DDB2900323E0547FFA9003210D
:10DD3000E070D9EAC3940650B3EA90620EF08A0804
:10DD400074062508F874033400F9900323E0548026
:10DD5000602CEE6004741080027440906211F0EE4A
:10DD6000600474038001E488828983A3A3A3A3A32E
:10DD7000A3A3F0EE6004790880307907802CEE6070
:10DD800004742080027480906214F0EE60047403C6
:10DD90008001E4C0E0E8240CF582E912DCC8D0E0A0
:10DDA000F0EE6004790A8002790912062690620E6C
:10DDB000E4F0790102D706C082C08379001206B66A
:10DDC000E9700312061A02D79EC082C0837901123D
:10DDD00006B6E9700312062002D79EC082C0839067
:10DDE000032312E1487015A312E148700F9003213C
:10DDF00012DFB15480FAE9FBEA4B600790030D741F
:10DE000004801AE8906200F09003066009E0640262
:10DE1000700C74038007E0640370037402F002D78F
:10DE20009E74F21201F3900321E0FAA3E01460085B
:10DE3000146019146047805C12067412DF8EA37B95
:10DE40008012048DA3F0A3E4F002DF4F79001206E4
:10DE50007A12DF8E7B80E924020909EA3400FA1283
:10DE6000048DFC1919E0FAA3E92403090909EA342D
:10DE700000FA12048DF9ECA3F0A3E980CBEAF912C1
:10DE8000068690031AEAF0A3EBF0A3E412DF9DA349
:10DE90007B0080AD90031AE4F0A3F0A3F0F50B90A3
:10DEA000032D12DB4502DF2A75090074037808127E
:10DEB0000516EA2508F8EB3509F990032112DFA7CA
:10DEC000E493C0E0EFFCD0E06C705DA3E4936E706F
:10DED0005790032312DFA7A3A3E493C0E0EFFCD085
:10DEE000E06C704488828983A3A3A3E4936E7038A6
:10DEF00088828983A3A3A3A3E493F508740193F50F
:10DF00000990031AE508F0A3E509F0A37480F088EE
:10DF1000828983A3A3A3A3A3A3E493F8740193F931
:10DF200090031DE8F0A3E9F0050B850B0890032F83
:10DF300012DFB1C39AF50CE99BF50D7403780C124E
:10DF4000054BC3E508950CE4950D500302DEA8903F
:10DF5000031AE0FCA3E0FDA3E0FEEC4D4E90030DA0
:10DF6000700474048022E06404601E90032512DBB8
:10DF70004512D75EC3EA98EB99500890031DEAF06A
:10DF8000A3EBF090030D7401F07F0602032B9003C6
:10DF90001AEAF0A3EBF0A3748012DF9D22F0900345
:10DFA0001AE0F9A3E0FA22E0FEA3E0FF8882898369
:10DFB0002212D765E82274ED1201F3EA2404F50871
:10DFC000EB3400F509850882F583E493602590031E
:10DFD0003112DFB1FEE98007EE2404FEEF3400FFCA
:10DFE0008E828F83E493F8740193F9EA687002EBF0
:10DFF0006970E5750C00803F9062147490F07410A5
:10E0000012E10A7003750D408E828F83A3A3A3E4EF
:10E010009355106006E50DD2E0F50DE50D90621503
:10E02000F0EA906213F0EC240CF582ED12DCC8E407
:10E03000F090620EF0050C850882850983E493F860
:10E04000E50CC398400302E1057A00790512066EDB
:10E050008A0E8B0FEA450F60DCEA2402F8EB3400ED
:10E06000F9880A890B8882F583E493540FF512909E
:10E07000620EF0750D008A828B83A3A3A3A3E493A1
:10E080002407F510A3E4933400F5117403781012FB
:10E09000054BAA1085121074062510F8740334007D
:10E0A000F9E8FCE9FD751001751100E51278101210
:10E0B0000516E50E2403F8EB3400F9850A82850B7A
:10E0C00083E493A2E7400302DFF89062117448F002
:10E0D000740812E10A7003750D408E828F83A3A32A
:10E0E000E49355106006E50DD2E0F50DE50D906264
:10E0F00012F0EA906210F08C828D83A3A3A3A3A3F5
:10E10000A3A302E02F7F0B02032BF088828983E414
:10E11000935403640122C082C08312E1457010A3AE
:10E1200012E148700AA3E064017002A3E060079066
:10E13000030D7404800C90031A7407F0A374031287
:10E14000E24202D79D90032112D765E8492274F478
:10E150001201F3900306E06402601490032312E1BD
:10E1600048700CA312E1487006900322E06008900A
:10E17000030D7404F0807E7A007901120626900364
:10E1800021E0FE605B7A00F912067A8A088B09EAC0
:10E19000450960449003067404F0EEA3F07E008508
:10E1A0000882850983A3A3A3A3E493F8EEC3985040
:10E1B0003D8E0A7408250AF582740312DCC8E4F067
:10E1C0007A00790412066E8A828B83A3A3A3E49358
:10E1D00070EE1206D40E80C790030D7404F0800E0A
:10E1E000900307F09003067403F0F912069E7A007C
:10E1F000790212062602D81B74F51201F390030669
:10E20000E06404701990031FE06481701112E1450D
:10E21000700C900325E064017002A3E06007900396
:10E220000D7404801A900323E02408F508A3E03459
:10E2300003F50990031AE508F0A3E50912E242028A
:10E24000DBA4F0A3E4F0A30412E24C22F0A3E4F078
:10E2500090030D042274F41201F3900306E06404A9
:10E26000701090031FE06401700890032512E148CC
:10E27000600890030D7404F0804E900323E0FE903C
:10E280000321E0FBEEFA900307E0F91206808A080A
:10E290008B09EA450960DBEEFA7903120626900342
:10E2A00021E0C0E0900323E02408F8A3E03403F960
:10E2B00088828983D0E0F0AA08AB091206D49003C3
:10E2C00023E0FA790412062602D81B74F61201F331
:10E2D0007523007524007525008A268B27EA906235
:10E2E0000BF08A088B097404780812054BE5089036
:10E2F0006207F08A088B097409780812054BE50853
:10E30000543E906209F002D70174F61201F3E59DC4
:10E31000A2E650FA906206E0FAA2E25035A826E89A
:10E3200090620BF0F5088527097404780812054BF4
:10E33000E508906207F085260885270974097808A2
:10E3400012054BE508543E906209F0906201E0D25C
:10E35000E0F07823EA46F6906202E0F508750900DD
:10E36000740478081205167823E50846F608E509CE
:10E3700046F6906204E0F508750900740978081201
:10E3800005167824E50946F6EAA2E0500375250152
:10E3900074065A6003752500E58BA2E55006758B5F
:10E3A000DF75250012062C02D70174F61201F31254
:10E3B000EC9CF50895E0F50974027808120516E55D
:10E3C00008240CF8E5093400F9901599E8F0A3E960
:10E3D000F0E8FCE9FD900355ECF0A3ED12F224F017
:10E3E000750804F50978081204F17C147DD17A745B
:10E3F0007B1512EC521204A775082078081204F15C
:10E4000012EC4A1204A77508007509017808120475
:10E41000F17C9D7D137A007B0790D122E0F91206F2
:10E420006274021204A790149CE0F4700B78081236
:10E4300004F112ED831204A71205E412068C7AFF90
:10E440007BFF1206F202EAA174F51201F3800312B7
:10E4500006F8A2E840F990620E7404F0A823E8548C
:10E460000460097823E654FBF6120692A823E854C8
:10E470001060097823E654EFF6120698906214E0D3
:10E48000A2E050031205F0906211E0A2E0403A9041
:10E490000301E0700D900300E06402702C7403F03F
:10E4A000802F64027023E4F0750874750915F50A6D
:10E4B00078081204ED790D7A287B621206AA74039B
:10E4C0001204A79062117401F0900300E0640370DD
:10E4D000047901800279007F0302032BC082C0838C
:10E4E00075AC00759A0012ED7A90620FE4F0E0A22C
:10E4F000E740FB02F23874F61201F375080475095F
:10E500000078081204F17C457D157A787B1512ECB1
:10E51000521204A790D0FC12058590157C1205912B
:10E52000901580E4F075081478081204F17C007DE1
:10E53000007A607B1512ED8B1204A7901560E054F1
:10E5400080F8A3E0F9E84470901560F0A3E9F0903A
:10E550001569740AF090154912058590158D1205FC
:10E56000911205C6E9F8901550E0642A700512056D
:10E57000F680769003017402F01468600E90158D99
:10E5800012058590157C120591805E901550E0640F
:10E5900028704A906211E0A2E040F812F06A120579
:10E5A0001612F052901512F0E9901511F075D60878
:10E5B000E5D6A2E350FA75D70890159BE014F070E9
:10E5C0000512F09D602390159CE004F0642070C358
:10E5D000E4F090159EE004F01205D280B690158DFF
:10E5E000E060069062117401F002EAA974F512016C
:10E5F000F374E71204D77F01901550E0604B24FDBF
:10E60000607024F1700302E6A924F8700302E6F0BA
:10E6100014700302E71D24FE700302E82E14700339
:10E6200002E72F24FB700302E73B24FE700302E79E
:10E630009E24FD700302E7DB24FE700302E7DB2467
:10E640008A700302E7E002E821900300E0600D9089
:10E650001580EFF090030004F002E82E900302E032
:10E66000700302E82E14F0600302E82E1205DE02A9
:10E67000E82E901549E0FAA3E0FBC3EA9415EB9469
:10E680000040027A14750860750915750A0078084B
:10E690001204EDEAF97A287B621206AA74031204C6
:10E6A000A7901560E0547F80AF901549E0F8A3E093
:10E6B000F9C3E89425E994004017E824DCF8E9342C
:10E6C000FFF9E8FAE9FB90157CEAF0A3EB12F224DB
:10E6D000F07508487509D0750A0078081204ED79BC
:10E6E000247A287B621206AA74031204A702E82E79
:10E6F000740912059DAC82AD837583D07582F87460
:10E7000004120414740912059DA982AA8389088A37
:10E7100009750A0078081204ED790480C490155434
:10E72000E06402600302E82E900300EF02E658A3C3
:10E73000E0700302E82E90158080F0740D12059DA4
:10E74000AC82AD837583D07582DC740C1204149096
:10E75000159AE0C0E0741312059DD0E0F090159971
:10E76000E0C0E0741412059DD0E012E838940DED7D
:10E77000940040027C0C906215E0D2E7F0906212A7
:10E78000E0D2E7F0740D12059DA982AA8389088A58
:10E7900009750A0078081204EDECF902E6E1EF12BF
:10E7A000059DAC82AD837583D07582F07408120428
:10E7B0001490159AE0C0E0740312059DD0E0F0902B
:10E7C0001599E0C0E0740412059DD0E012E8389479
:10E7D00009ED940040027C08EF80AB1205FC804EEE
:10E7E000901549E0FAA3E0FB851882851983AC8275
:10E7F000AD837583D1758220EF120414C3EA9402AD
:10E80000EB940040027A01851882851983AC82ADB1
:10E81000838C088D09750A0078081204EDEA02E776
:10E820009A901580EF12F1D2742012F1C91FEFF9FE
:10E8300074191204A702E4D7F0901549E0FCA3E094
:10E84000FDC3EC2274F61201F390159EE064807013
:10E850002F900D5B7480F0900D5F7401F0900D634C
:10E860007404F0901599E0900D67F090159AE0907F
:10E870000D68F0900D9B7455F0A374AAF002E9CFD7
:10E88000E06481600302E9CF75083E7509007808ED
:10E890001204F17C357D037A9D7B0B12EC5212043D
:10E8A000A7900D9B7455F0A374AAF0A374F8F0A37D
:10E8B00074FFF0A3F090153BE0900DA07021E4F000
:10E8C000A3F0F50875090178081204F17C9D7D1309
:10E8D0007A9D7B1112EC521204A790129C8039741D
:10E8E000FFF0A3740FF075082078081204F17C2162
:10E8F0007D157A9D7B1112EC521204A775080075E4
:10E90000090178081204F17C9D7D137ABD7B1112F8
:10E91000EC521204A79012BCE4F090149CE0700337
:10E9200002E9B612EC932404FEE93400FF7A047B7A
:10E93000007C047D0280227AFF7B0FEAC0E012E9AE
:10E94000D2D0E012E9DDEB540FC0E012E9D2D0E002
:10E95000F0EA24010AEB3400FBC3EE9AEF9B405629
:10E96000EE6A7002EF6B70047AFF7B0FECF8EDF942
:10E97000E824010CE93400FDEAC454F0F508749D64
:10E9800028F582740B39F583E04508F08A088B0975
:10E990007404780812054B12E9D2E50812E9DDEAA1
:10E9A00024010AEB3400FBEE6A7002EF6B6088C34F
:10E9B000EE9AEF9B508575080075090278081204DD
:10E9C000F17C9D7D0D7A9D7B0F12EC521204A70203
:10E9D000EAA9749D2CF582740B3DF58322F0EC249A
:10E9E000010CED3400FD2274F61201F374FF1204E1
:10E9F000D790159EE0C39480503290149CE0602C18
:10EA000090159EE05407F87401B800028004C333E7
:10EA1000D8FCC0E0E0131313541FF874E528F58206
:10EA2000741412F065D0E0F8E058603785188285DC
:10EA30001983E4F0E58290151AF0851983E5839037
:10EA40001519F09015207412F075D610E5D6A2E4D1
:10EA500050FA75D71090159EE0C39480403E120581
:10EA6000CC8039E5C7FA90151A12F08B12051624DE
:10EA700000E5093480901519F090152012F0787592
:10EA8000D610E5D6A2E450FA75D710E5D6A2E44038
:10EA9000FA8AC77A9D7B0BE0F9120638740102EC02
:10EAA0004453F4FED29043FE017F0202032B74F61E
:10EAB0001201F374FC1204D790159CE0C394195012
:10EAC0000302EBFF851882851983AC82AD837583C1
:10EAD000D175820874041204147EBD7F118008EE83
:10EAE0002420FEEF3400FF75082075090078081215
:10EAF00004F17CAC7DD0EEFAEF12EC741204A78B1B
:10EB000009EA450970D9EE24E0FEEF34FFFF7508ED
:10EB10000375090078081204F17C007DD1EE240809
:10EB200012EC6C1204A78B09EA45097508047509F3
:10EB300000780870551204F1740212059D12EC65FC
:10EB40001204A78B09EA4509900303700A7404F0C4
:10EB500090153BE402EC3B740212F05E740212EC7E
:10EB60007B7464F0EE241D12EC5BEE241E12EC5B51
:10EB700012EC58750820F50978081204F1EEFCEF44
:10EB8000FD12EC4E1204A702EC3C1204F1740212C6
:10EB9000059D12EC651204A78B09EA4509700B90DC
:10EBA00003037403F090149C80A912EC932401F5E4
:10EBB00008E93400F5097403780812051690030378
:10EBC0000412F05E740312EC7BE4F0EE241D12F0EC
:10EBD00062E508F0EE241E12F062E509F012EC582E
:10EBE000F50875090178081204F17CBD7D117A9D44
:10EBF0007B1312EC521204A790149C7401803CE029
:10EC0000C394114037900FA0E0701B90153BE0605B
:10EC100015E4F09003037404F090149CE0701D79E7
:10EC2000011206568016900FA1E054F0700E901459
:10EC30009CE06008E4F09003037403F09003027416
:10EC400008F074041204A702EAA97C6C7DD07A2132
:10EC50007B15120704740222EE241FF582EF3400A4
:10EC6000F583E4F022AC82AD83EE241CFAEF34008D
:10EC700012EC7422FB1206FE740222F0EE241BF545
:10EC800082EF3400F583E4F0EE241CF582EF3400CB
:10EC9000F5832212EC9CF895E0F9E82290D123E06C
:10ECA000F890D122E0FAE8C39A2274F61201F31226
:10ECB000ED7A900303E014600A24FE604E14607144
:10ECC00002ED6B901500E0600302ED6B120632E975
:10ECD000700302ED6B75084075090078081204F1A5
:10ECE0007C9D7D1390D122E0F50874097808120507
:10ECF0001624C0FAE5093401FB12066874021204F6
:10ED0000A7C2AF75C9AB75C95B80FE901500E070F6
:10ED1000047900800890153BE060167901120656D0
:10ED200075080075090178081204F112ED831204C8
:10ED3000A790149FE4F0A3F090149CE0702D901520
:10ED40003BE0702775082075090078081204F1125D
:10ED5000EC4A1204A775086478081204F17CFF7D60
:10ED6000007A9D7B1412ED8B1204A7900303E4F04C
:10ED70007AD07B071205EA02EAA153F4FEC290435F
:10ED8000FE01227C007D007A9D7B1312070A74022B
:10ED900022C082C0837415F5D375D2019015027418
:10EDA00028F09015017462F090150512EDF27412BE
:10EDB000F090150C749DF0740390150BF090150DE8
:10EDC00012F2227420F09015147428F09015137428
:10EDD00062F090151512EDF27442F090151C749DBE
:10EDE000F0740B90151BF090151D12F22274200286
:10EDF000F237E4F0A37440F0A37420F0A322EBC335
:10EE000013FBEA13FAEAF8EBF9E824FFFAE934FF16
:10EE1000FBE849601A00000000000000000000004C
:10EE20000000000000000000000000000080D6028A
:10EE3000045A74F61201F3906216E0FA741F6A70B5
:10EE40005578417915906228E088828983F0A3A8DB
:10EE500082A9831AEA70EE75080475090078081211
:10EE600004F17C187DD17A417B1512EC751204A750
:10EE70008B09EA4509702A90154EE0702490154DD3
:10EE8000E060046480701A90154FE014C394105031
:10EE9000101205C0800B9062147410F0E0A2E440E0
:10EEA000FB906214E4F002EAA974F61201F3906296
:10EEB00014E4F0906214E0A2E0400302F03912F092
:10EEC0006A12051612F052901504F0E9901503F03D
:10EED00075D602E5D6A2E150FA75D702906214E425
:10EEE000F090159BE014F0700B12F09D70069003EB
:10EEF000017402F090159CE004F06420600812F0A8
:10EF0000B1600302F03990159EE06481700C120527
:10EF1000D890159EE004F002F034900303E0640200
:10EF2000702F90159EE064826006E0C394805021AB
:10EF30007A9D7B0B12063EE9600302F034750820CF
:10EF400075090078081204F112EC4A1204A702F0C5
:10EF50003490159EE0C39480400302F03490150075
:10EF6000E0600302F0347A9D7B0B90159EE0F9126D
:10EF70000638E9700512F04480FE75080075090234
:10EF800078081204F17C9D7D0B90159EE0F50875C4
:10EF9000090074097808120516FAAB09120668749C
:10EFA000021204A7E5C7FA90150A12F08B12051693
:10EFB0002400E5093480901509F090151012F078BE
:10EFC00075D604E5D6A2E250FA75D704E5D6A2E2DA
:10EFD00040FA8AC775090878081204F17C9D7D0300
:10EFE0007A9D7B0B12EC751204A78B09EA45096028
:10EFF0000512F04480FE12F0B1603990159EE004D5
:10F00000F0C39478400512F04480FEE05407F87491
:10F0100001B800028004C333D8FCC0E0E01313132E
:10F02000541FF874D528F582741412F065D0E0F8F6
:10F03000E05860C790159CE4F012F0B1600302EE56
:10F04000B302EAA97901120656C2AF75C9AB75C9F8
:10F050005B22749D2508F8740B3509F9E822F0EE5F
:10F06000241AF582EF3400F5832290159CE0F50810
:10F0700075090074067808227452F090159EE0C459
:10F08000540FF8E5C754F848F5C722E4F090159EF0
:10F09000E0540FF508750900740B7808227408F025
:10F0A000901597E024FFF0F8A3E034FFF0F9E84969
:10F0B00022901597E0F8A3E0F9E8492274F61201CE
:10F0C000F374FC1204D7901558E0FA901557E0F944
:10F0D000EA901597F0A3E9F0901552E0C0E07403B0
:10F0E00012059DD0E0F0901553E0C0E074021205C7
:10F0F0009DD0E0F0901554E0C0E0740112059DD061
:10F10000E0F0901555E0851882851983F07402129D
:10F11000059D12F0B47028851882851983E0F8A344
:10F12000E0F9901597E028FAA3E039FB901599E0F3
:10F13000240CF8A3E03400F9C3EA98EB99401C9042
:10F140001580740112F1D27421F0A3E412F1C99078
:10F15000158D12058590157C12059190159B7408EC
:10F16000F0851882851983E0FAA3E0FBC3EA940CCA
:10F17000EB94004008EA24F4FAEB34FFFB8A088B96
:10F18000097402780812054BA808E8333354FCF9D7
:10F19000EAC39933333354F890159CF0851882856F
:10F1A0001983C3E0940CA3E094005004748080049D
:10F1B00090D122E028F8E890159EF0901550E06478
:10F1C0002870031205D202EC42F0901560E04480F2
:10F1D000F022F0901563E054F0F8A3E0F9E844055C
:10F1E000901563F0A3E9F090156E228041C082C0B3
:10F1F00083900320E064FE702190030DE07017906F
:10F20000031A7421F0A374D112F22404F0A3E4F0E1
:10F2100090030D0480096401600690030D7404F0EE
:10F2200080167408F0A3E4F0A32280028000C0825C
:10F23000C08390030D7404F0D083D08202045A80FE
:10F24000ED02045A02045AFFFFFFFFFFFFFFFFFF1A
:10F25000FFFFFFFFFFFFFFFFFFFFFFFFFFFFFFFFBE
:10F26000FFFFFFFFFFFFFFFFFFFFFFFFFFFFFFFFAE
:10F27000FFFFFFFFFFFFFFFFFFFFFFFFFFFFFFFF9E
:10F28000FFFFFFFFFFFFFFFFFFFFFFFFFFFFFFFF8E
:0400000500000529C9
:00000001FF
